:100000000C94FE000C944A1C0C94231C0C942601A6
:100010000C9426010C9426010C9426010C942601C4
:100020000C9426010C9426010C9426010C942601B4
:100030000C9426010C9426010C9426010C942601A4
:100040000C94D91B0C9426010C94971C0C94711CD5
:100050000C9426010C9426010C9426010C94260184
:100060000C94C91C0C942601084AD73B3BCE016E68
:1000700084BCBFFDC12F3D6C74319ABD56833DDAFF
:100080003D00C77F11BED9E4BB4C3E916BAAAABE0E
:10009000000000803F00446F6E65210A0043616CE0
:1000A00063756C6174696E67206F666673657473DF
:1000B0002C20646F206E6F74206D6F7665204D501C
:1000C0005536303530004D5055363035302073744C
:1000D000617475733A2000416C6C204C6944415244
:1000E0007320696E697469616C697365640020616D
:1000F000737369676E6564206164647265737320ED
:100100003078004C69444152206F6E2070696E2037
:10011000006D6D2073686F72740066726F6E74206C
:1001200077616C6C3A2073746F7070656420007531
:100130006E6B6E6F776E20636F6D6D616E642C20D9
:10014000736B697070696E670020666F7277617299
:10015000642078002F00207269676874002F0020E7
:100160006C656674002F0000000000240027002A40
:100170000000000000250028002B000000000023E4
:1001800000260029000404040404040404020202FA
:1001900002020203030303030301020408102040C8
:1001A0008001020408102001020408102000000051
:1001B0000800020100000304070000000000000026
:1001C00000204C69444152206E6F74207265737038
:1001D0006F6E64696E672C2072652D696E69746933
:1001E000616C6973696E67005269676874004C6579
:1001F00066740046726F6E740000421E11241FBEAA
:10020000CFEFD8E0DEBFCDBF25E0A2EDB1E001C069
:100210001D92A73DB207E1F711E0A0E0B1E0E4EFE5
:10022000F5E602C005900D92A23DB107D9F710E0A6
:10023000CEEFD0E004C02197FE010E94DA2ECD3F20
:10024000D107C9F70E94E0200C94F8320C9400000A
:10025000662329F06A3019F0862F90E008958FEF19
:100260009FEF0895AF92BF92CF92DF92EF92FF92ED
:100270000F93CF93DF93EC01DA017901942F9770FC
:10028000E1E0F0E09F01092E01C0220F0A94EAF795
:10029000522F6E018AE8C80ED11CF601808140E021
:1002A000823018F4422F813049F15D01F8EFAF221E
:1002B000E8ADF9AD28813981D90150968C918A9D9C
:1002C00090018B9D300D1124620F731FDF01A60F6B
:1002D000B71F01111AC0EA0EFB1E8C91842B8527D3
:1002E0008D93AE15BF05C9F7DF91CF910F91FF90A8
:1002F000EF90DF90CF90BF90AF90089550E0D5CFB2
:10030000440F550FE114F10479F33C91342B352758
:100310003C939F5F9770E1E0EE1AF1089111F0CFE6
:100320002CAD3DADA20FB31FF6018081823028F4C1
:10033000813009F051E041E0E5CF51E0E3CF80E0CA
:10034000089590E080E0089591E090939A02809360
:10035000BC0210929B021092BD020895CF93DF93CE
:1003600080933C05C7E3D5E0E881F9810190F081F5
:10037000E02D81E095E00995E881F9810280F38123
:10038000E02D81E095E0DF91CF910994CF92DF924B
:10039000EF92FF920F931F93CF93DF9300D000D083
:1003A0001F92CDB7DEB7C0903B0500913C05E091B0
:1003B0000105F0910205D188102FF12CE12CE0917C
:1003C0000105F091020580892091390530913A05A7
:1003D0001C821D838B8348E0849FC00111248E9D65
:1003E000A0018F9D500D9E9D500D1124240F351F8F
:1003F0003A832983E0910505F09106059E012F5F60
:100400003F4F41E06FE081E095E009951F5F812F4C
:10041000801B8C1528F48FEFE81AF80A1D1578F266
:100420000F900F900F900F900F90DF91CF911F9131
:100430000F91FF90EF90DF90CF9008959B01DC012A
:100440001896ED91FC9141E067E10994833081F0C9
:1004500028F4813099F08230A9F008958730A9F00E
:100460008830C9F08430B1F4809180008F7D03C062
:10047000809180008F7780938000089584B58F7776
:1004800084BD089584B58F7DFBCF8091B0008F77B8
:100490008093B00008958091B0008F7DF9CFCF9305
:1004A000DF93282F30E0F901E355FE4F8491F901E5
:1004B000E756FE4FD491F901EB57FE4FC491CC2380
:1004C000A1F081110E942602EC2FF0E0EE0FFF1F39
:1004D000E558FE4FA591B491EC91ED2381E090E0B9
:1004E00009F480E0DF91CF91089580E090E0FACFA9
:1004F0001F93CF93DF93282F30E0F901E355FE4F90
:100500008491F901E756FE4FD491F901EB57FE4F64
:10051000C491CC23A9F0162F81110E942602EC2F42
:10052000F0E0EE0FFF1FEF58FE4FA591B4918FB78B
:10053000F894EC91111108C0D095DE23DC938FBFA5
:10054000DF91CF911F910895DE2BF8CFCF93DF93EA
:1005500090E0FC01E756FE4F24918B579E4FFC0123
:1005600084918823D1F090E0880F991FFC01E9590C
:10057000FE4FA591B491FC01EF58FE4FC591D49167
:10058000623071F49FB7F8943C91822F8095832359
:100590008C93E8812E2B28839FBFDF91CF91089504
:1005A0008FB7F894EC912E2B2C938FBFF6CF1F931F
:1005B000CF93DF93182FEB0161E00E94A6022097F2
:1005C00039F460E0812FDF91CF911F910C94780274
:1005D000CF3FD10511F461E0F5CFE12FF0E0E35515
:1005E000FE4FE491E33031F140F4E130B1F0E2301C
:1005F000E1F0C038D1057CF7E4CFE73029F1E830ED
:1006000059F1E430B1F780918000806280938000DE
:10061000D0938B00C0938A0004C084B5806884BDE9
:10062000C7BDDF91CF911F91089584B5806284BDCD
:10063000C8BDF7CF80918000806880938000D09300
:100640008900C0938800EDCF8091B00080688093CE
:10065000B000C093B300E5CF8091B000806280937A
:10066000B000C093B400DDCF3FB7F89480914A0248
:1006700090914B02A0914C02B0914D0226B5A89BDF
:1006800005C02F3F19F00196A11DB11D3FBFBA2F24
:10069000A92F982F8827BC01CD01620F711D811DE4
:1006A000911D42E0660F771F881F991F4A95D1F769
:1006B00008958F929F92AF92BF92CF92DF92EF9266
:1006C000FF926B017C010E9434034B015C01C11459
:1006D000D104E104F104B9F00E94340368197909E6
:1006E0008A099B09683E73408105910580F321E0EA
:1006F000C21AD108E108F10888EE880E83E0981E3E
:10070000A11CB11CE4CFFF90EF90DF90CF90BF9081
:10071000AF909F908F9008952FB7F8946091460204
:100720007091470280914802909149022FBF08952D
:10073000089508950895AF92BF92CF92DF92EF92FD
:10074000FF920F931F93CF93DF936C017B018B017B
:10075000040F151FEB015E01AE18BF08C017D107CB
:1007600059F06991D601ED91FC910190F081E02D55
:10077000C6010995892B79F7C501DF91CF911F91AA
:100780000F91FF90EF90DF90CF90BF90AF900895C2
:10079000FC01538D448D252F30E0842F90E0821B87
:1007A000930B541710F0CF96089501970895FC010C
:1007B000918D828D981761F0A28DAE0FBF2FB11D64
:1007C0005D968C91928D9F5F9F73928F90E00895BC
:1007D0008FEF9FEF0895FC01918D828D981731F076
:1007E000828DE80FF11D858D90E008958FEF9FEFCA
:1007F0000895FC01918D228D892F90E0805C9F4FA0
:10080000821B91098F73992708958EEB92E00E94C5
:10081000F90321E0892B09F420E0822F089580E07C
:1008200090E0892B29F00E94050481110C940000AE
:100830000895FC01A48DA80FB92FB11DA35ABF4F75
:100840002C91848D90E001968F739927848FA689CF
:10085000B7892C93A089B1898C91837080648C9323
:10086000938D848D981306C00288F389E02D8081D2
:100870008F7D80830895EF92FF920F931F93CF9304
:10088000DF93EC0181E0888F9B8D8C8D98131AC0CB
:10089000E889F989808185FF15C09FB7F894EE89B2
:1008A000FF896083E889F98980818370806480830F
:1008B0009FBF81E090E0DF91CF911F910F91FF905A
:1008C000EF900895F62E0B8D10E00F5F1F4F0F7302
:1008D0001127E02E8C8D8E110CC00FB607FCFACFBD
:1008E000E889F989808185FFF5CFCE010E9419043E
:1008F000F1CFEB8DEC0FFD2FF11DE35AFF4FF0828E
:100900009FB7F8940B8FEA89FB8980818062CFCFF3
:100910000F931F93CF93DF938C01D0E0C0E0F801D9
:10092000EC0FFD1F6491662341F08EEB92E00E9474
:100930003B04892B11F02196F2CFCE01DF91CF91AC
:100940001F910F910895CF93DF93EC01888D882339
:10095000B9F0AA89BB89E889F9898C9185FD03C022
:10096000808186FD0DC00FB607FCF7CF8C9185FF07
:10097000F2CF808185FFEDCFCE010E941904E9CF2F
:10098000DF91CF910895DC011A96ED91FC9130E052
:1009900020E00994DC011696ED91FC9130E020E016
:1009A00040E069E10994DC011696ED91FC9130E09C
:1009B00020E040E068E109949A01DC011696ED918F
:1009C000FC91462F67E10994EF92FF920F931F93DA
:1009D000CF93DF931F92CDB7DEB77C018B01D80197
:1009E0006C91673129F150F46531A0F40F90DF91DB
:1009F000CF911F910F91FF90EF9008956A3118F1F8
:100A00006E3FA1F7F8014181498369E2C7010E9465
:100A1000C3040BC0F80141814983D7011696ED91BB
:100A2000FC9130E020E0C70109950E5F1F4FD7CF42
:100A3000F80181818983AE014F5F5F4F61E0C7019B
:100A40000E94DC04F2CF0F5F1F4FD7011696ED9185
:100A5000FC9130E020E040E0C7010995C0CF462F6F
:100A6000DC011696ED91FC9130E020E066E10994FE
:100A7000462FDC011696ED91FC9130E020E065E117
:100A80000994EF92FF920F931F93CF93DF93EC01A2
:100A9000042F79016D3009F446C050F46B30C9F170
:100AA000693009F49FC06A3009F465C080E046C02F
:100AB0006E3009F452C06F3099F70E94D304F701E9
:100AC0001381110F110F110F6C89160F60E4CE0105
:100AD0000E943805612F62956F706061CE010E949F
:100AE0003805612F6F70CE010E942F05F7016481D8
:100AF000606BCE010E942F05F70140815181628118
:100B0000660F660F660FCE010E94DC040150A1F74C
:100B10002EC06DE171E0442311F068E171E0CE0177
:100B20000E94E4040AC0411110C061E171E00E941A
:100B3000E404E881F98182898C8B81E0DF91CF9197
:100B40001F910F91FF90EF9008956AE071E00E946D
:100B5000E404E881F9818389EFCF0E94D30461E83E
:100B6000CE010E943805602FCE010E942F05CE01D4
:100B70000E94CA04E2CFEA85FB8530E020E040E035
:100B800068E2CE010995EE81FF8130E020E040E08F
:100B900064E1CE01099541E06BE4CE010E94C304FB
:100BA000E881F981448169E2CE010E94C30440E0FA
:100BB0006BE4CE010E94C304E881F981448169E2BB
:100BC000CE010E94C30441E06BE4CE010E94C30445
:100BD000E881F981458169E2CE010E94C30462E2A5
:100BE00071E09DCF87E591E0998388831C8AA5CF2A
:100BF000DC011896ED91FC9130E020E040E069E1E5
:100C00000994DC011896ED91FC9130E020E040E081
:100C100068E10994CF93DF931F92CDB7DEB7698364
:100C2000BE016F5F7F4F0E941E020F90DF91CF9138
:100C30000895EF92FF921F93CF93DF93EC01162F4D
:100C40007A010E94010660E4CE010E940A06E8854E
:100C5000F9859701412F67E1CE010995CE01DF911A
:100C6000CF911F91FF90EF900C94F805EF92FF92B7
:100C70001F93CF93DF93EC01142F7901663181F13B
:100C800038F4643109F44BC0653179F080E022C05A
:100C90006831C9F150F16931C9F780913D0288236B
:100CA00091F1CE010E94F8052EC080913D0288236B
:100CB00019F0CE010E94F805CE010E94010660E005
:100CC000CE010E940A06612FCE010E940A0681E031
:100CD00080933D02DF91CF911F91FF90EF90089597
:100CE000642F0E940A0681E0F5CF80913D0288239F
:100CF00019F0CE010E94F805A701193138F4612FCF
:100D0000CE010E94190610923D02EDCF68E1CE019E
:100D10000E941906185188E1E80EF11CEDCF8E896A
:100D20008F3F11F488E78E8BE885F9859701412F75
:100D300064E1CE01DF91CF911F91FF90EF90099474
:100D40000F93FC01E05CFF4F0190F081E02D4E1B02
:100D50005F0BDC01D496ED91FC9109950F910895FC
:100D6000CF93DF93FC01A081B18182AD90E09C0123
:100D700043E0220F331F4A95E1F737AF26AF509675
:100D80002C91509748E0249F9001112435AF24AF57
:100D900023AD30E0B90153E0660F771F5A95E1F7B4
:100DA000EF01C05CDF4F7983688351964C91519776
:100DB000E901C80FD91F50E04C175D0718F4CA01AC
:100DC000821B930BEF01CE5BDF4F79836883229602
:100DD00023E0880F991F2A95E1F7860F971F9983C3
:100DE0008883229654968D919C91559799838883F8
:100DF000E85BFF4F56968D919C9191838083DF91A4
:100E0000CF9108950F931F93FC01E25BFF4F019078
:100E1000F081E02DDC01A05BBF4F0D90BC91A02DB7
:100E20004A175B0740F4E017F10748F0041715076D
:100E300030F080E019C0E017F107C0F3FACFFC01F1
:100E4000E65BFF4F40815181845B9F4FFC018081B5
:100E500091816817790758F481E04217530720F011
:100E600081E02617370728F71F910F910895421741
:100E70005307B0F3DECF2F923F924F925F926F9263
:100E80007F928F929F92AF92BF92CF92DF92EF921A
:100E9000FF920F931F93CF93DF93CDB7DEB72A97BF
:100EA0000FB6F894DEBF0FBECDBF9A878987865BE9
:100EB0009F4F9A838983FC0111821082E985FA850C
:100EC000EA5BFF4F4080518029853A85245B3F4F84
:100ED0003C832B83F90151824082E985FA85EE5BE0
:100EE000FF4F2080318029853A85225B3F4F3E832A
:100EF0002D83F90131822082E985FA85EC5BFF4F71
:100F00006080718029853A85205B3F4F38872F8329
:100F1000F90171826082E985FA85E85AFF4FE08025
:100F2000F180E985FA85EC5AFF4FA080B180E98510
:100F3000FA85EA5AFF4FC080D180E985FA85EE5ADA
:100F4000FF4F8080918087019501A601B4018985BA
:100F50009A850E94020729853A852C573F4F3A8788
:100F6000298781111BC0F90110822A960FB6F894C7
:100F7000DEBF0FBECDBFDF91CF911F910F91FF90CC
:100F8000EF90DF90CF90BF90AF909F908F907F9029
:100F90006F905F904F903F902F90089581E0E9858A
:100FA000FA8580838114910421F0E981FA8191828C
:100FB0008082A414B50420F4EB81FC81B182A0826C
:100FC0002C143D0420F4ED81FE81D182C082E61410
:100FD000F70458F6EF81F885F182E082C6CF0F93CF
:100FE000CF93DF93E02FDC01AC57BF4FFC91FF2381
:100FF00009F460C02115310509F45CC022303105C7
:1010000038F0023009F04AC06F5F7F4F621B730BEC
:101010000E2F0170E0FD52C0FC01E25BFF4F01901A
:10102000F081E02D4E175F0708F444C0FC01E05B3F
:10103000FF4F0190F081E02D4E175F07D8F5FC01BE
:10104000E45BFF4F0190F081E02DDC01A65BBF4F18
:101050000D90BC91A02D260F371F2617370738F5A6
:101060006E177F0718F59F0121503109A217B307AA
:1010700008F56A177B0708F4BD012E173F0708F42F
:10108000F901E61BF70BEC01AEA9BFA914960D9070
:10109000BC91A02D9F01FD0109950CC0033009F002
:1010A000B7CF4F5F5F4F421B530BB2CFBD016E17DF
:1010B0007F07E0F2DF91CF910F910895FC01E65B8D
:1010C000FF4F0190F081E02D6E177F0798F3FC0130
:1010D000E45BFF4F0190F081E02D6E177F0750F722
:1010E000FC01E05BFF4F0190F081E02DDC01A25B91
:1010F000BF4F0D90BC91A02D240F351F241735072D
:10110000A8F44E175F0788F49F0121503109A217F8
:10111000B30780F64A175B0708F4AD012E173F07A7
:1011200008F4F901E41BF50BAECFAD014E175F07D4
:1011300008F6EDCF213069F038F0223079F0840FD5
:10114000911D47FD9A950895860F911D67FD9A950B
:101150000895841B910947FD93950895861B910975
:1011600067FD93950895213069F038F0223079F0C9
:10117000861B910967FD93950895840F911D47FD86
:101180009A950895860F911D67FD9A950895841B81
:10119000910947FD939508953F924F925F926F9208
:1011A0007F928F929F92AF92BF92CF92DF92EF92F7
:1011B000FF920F931F93CF93DF937C01162F442E42
:1011C000EC01C25ADF4F5E806F806C018AE8C80E66
:1011D000D11C78847518312E711608F4372C8C8048
:1011E0009D800E85202F462D652D8A819B810E9432
:1011F0009A085C01202F462D652DC4010E94B3087A
:10120000AC01442079F08C85F6018083232D30E0F9
:10121000B501C7010E94EF07171548F0171963942D
:10122000512CD7CF8B858111F7CF8D85EDCF150D43
:101230001E836F82DF91CF911F910F91FF90EF90EE
:10124000DF90CF90BF90AF909F908F907F906F90E6
:101250005F904F903F900895DC011A964C911A9739
:10126000ED91FC911197249130E0042E02C0359548
:1012700027950A94E2F7842F860F883068F031961C
:101280001196FC93EE93E49198E0941B01C0EE0F4D
:101290009A95EAF72E2B88501A968C938FEF9FEF32
:1012A00001C0880F6A95EAF7809582230895FC01B2
:1012B000E60FF11D849190E0982F88273196E491F4
:1012C0008E0F911D08950F931F93CF93DF938C0181
:1012D000C62F642FCC32B0F4CA32D0F5C83239F1FF
:1012E000C932E1F180E0C034A0F1CF73F801EC0F16
:1012F000F11D868D8F3F61F1C03108F045C00E941D
:10130000780226C0CD3281F168F384EB8C0F8230F5
:1013100048F7CF73C00FD12FD11D8E8D411132C030
:101320000E94780261E08E8D0E94A60211C0025ECA
:101330001F4FD0E0F80181918F018F3F31F061E0C4
:10134000D03108F062E00E94A602DF5FD63191F74B
:1013500081E0DF91CF911F910F91089570E090E0AF
:1013600080E00E945903F4CF85E090E0433010F014
:1013700082E090E0880F991F880F991F05970197C9
:10138000F1F7E6CF62E0D0CF0E944F0221E0892B37
:1013900009F420E0F801218FDBCF20911A02260FFB
:1013A0003327331F21323105ECF420919402FC01E4
:1013B00090E080E0243069F082E00895A0911A0264
:1013C0002191AC0146505E4FA40FB52FB11D2C9357
:1013D0000196861798F380911A02680F60931A029B
:1013E00080E0089581E008951092940281E0809356
:1013F000930210926E0261E082E10E94780261E045
:1014000083E10E947802E9EBF0E080818E7F8083A7
:1014100080818D7F808388E48093B80085E4809309
:10142000BC000895CF93DF9391E09093440288230A
:10143000B9F0C091B800D091BA008091BC008A7B0D
:101440008093BC0060E082E10E94780260E083E16A
:101450000E9478020E94F409D093BA00C093B800A9
:10146000DF91CF9108958F929F92AF92BF92CF92CA
:10147000DF92EF92FF920F931F93CF93DF93D09160
:10148000BD02D13208F0D7C0182FC091BC020E9413
:1014900034036B017C018091940281116BC082E066
:1014A00080939402109393028FEF80939202109294
:1014B0009102D0939002ACE9B2E0E0E7F2E080E084
:1014C000D81391C010926F0280916F02CC0FC82B7D
:1014D000C0936F0280916E02813009F088C0109233
:1014E0006E020E9434036B017C0180916F02809335
:1014F000BB008091960290919702A0919802B091C2
:101500009902892B8A2B8B2BA1F00E943403009126
:1015100096021091970220919802309199026C19CD
:101520007D098E099F09061717072807390708F450
:1015300042C08091BC0083FDD8CF85EC8093BC0075
:101540000E9434036B017C0180919402823009F483
:1015500050C0809192028F3F09F46FC08091920237
:10156000803209F46CC080919202803309F469C022
:1015700084E026C08091960290919702A0919802F3
:10158000B0919902892B8A2B8B2B09F484CF0E946E
:1015900034038090960290909702A0909802B090A9
:1015A00099026C197D098E099F0986169706A8066F
:1015B000B90608F070CF809195020E94120A85E06A
:1015C00010929B021092BD0210929A02DF91CF916D
:1015D0001F910F91FF90EF90DF90CF90BF90AF9051
:1015E0009F908F9008959D9191938F5F69CF85EE25
:1015F000A5CF8091960290919702A0919802B09108
:101600009902892B8A2B8B2B09F49ECF0E943403DD
:1016100000919602109197022091980230919902C0
:101620006C197D098E099F090617170728073907C6
:1016300008F08ACFC0CF81E0C3CF80E0C1CF82E085
:10164000BFCF83E0BDCFCF92DF92EF92FF920F9397
:101650001F93CF93DF93D82FC62F613208F098C025
:101660000E9434036B017C018091940281116BC054
:1016700081E080939402809393029FEF9093920273
:10168000109291029C0F9093900280936F02809130
:101690006F02DD0FD82BD0936F0280916E028130E4
:1016A00009F078C010926E020E9434036B017C0135
:1016B00080916F028093BB00809196029091970277
:1016C000A0919802B0919902892B8A2B8B2BA1F0C3
:1016D0000E94340300919602109197022091980283
:1016E000309199026C197D098E099F090617170719
:1016F0002807390708F448C08091BC0083FDD8CF83
:1017000085EC8093BC000E9434036B017C018091C6
:101710009402813009F440C0809191028C1710F43A
:10172000C0919102E0E7F2E0AEE4B2E080E08C1319
:1017300055C08C2FDF91CF911F910F91FF90EF90AB
:10174000DF90CF9008958091960290919702A0919A
:101750009802B0919902892B8A2B8B2B09F484CFA4
:101760000E943403009196021091970220919802F2
:10177000309199026C197D098E099F090617170788
:101780002807390708F070CF809195020E94120A4D
:10179000C0E0CFCF85EEB5CF8091960290919702B1
:1017A000A0919802B0919902892B8A2B8B2B09F476
:1017B000AECF0E94340300919602109197022091BF
:1017C0009802309199026C197D098E099F090617BC
:1017D00017072807390708F09ACFD6CF91919D9324
:1017E0008F5FA5CF0895E091430280914202E817F0
:1017F00030F4F0E0E25BFD4F808190E008958FEFE0
:101800009FEF089590914302809142022FEF3FEFA6
:10181000981748F4E92FF0E0E25BFD4F208130E0BB
:101820009F5F90934302C901089580914202909175
:101830004302891B990B0895CF92DF92EF92FF929A
:101840000F931F93CF93DF937C01CB018A012091EB
:101850009A02222389F0EB016B01C40ED51ECC1530
:10186000DD0569F06991D701ED91FC910190F0815E
:10187000E02DC7010995F3CF642F0E94CD09C8015F
:10188000DF91CF911F910F91FF90EF90DF90CF905C
:101890000895CF93DF931F92CDB7DEB76983209170
:1018A0009A022223F9F02091BD02203258F021E063
:1018B00030E0FC013383228390E080E00F90DF91E1
:1018C000CF91089580919B02E82FF0E0E456FD4F00
:1018D000998190838F5F80939B028093BD0281E00A
:1018E00090E0ECCF61E0CE0101960E94CD09F7CFE8
:1018F00081E00C94330ACF93DF93EC01683109F453
:1019000044C030F46431A1F0673159F080E006C082
:10191000693109F453C06032C9F781E0DF91CF919A
:10192000089550E0B9018BED93E00E941C0CF5CFB7
:101930008C859D85AE85BF85892B8A2B8B2B71F479
:10194000E881F981A585B0E020EA36E841E050E081
:101950000E943F2E6C877D878E879F87109243025F
:101960001092420210929B021092BD020E94F40952
:1019700088E993E090933F0280933E0289E993E0E7
:101980009093410280934002C8CF2C853D854E85BF
:101990005F8560E074E284EF90E00E94A42E205105
:1019A0003109410951095695479537952795209357
:1019B000B8008E8986950E94A401AFCF8BED93E08D
:1019C0000E94780CAACF0F931F93CF93DF93082F19
:1019D000162F88E60E94A401C7EED3E08C899D896A
:1019E000DC01ED91FC910190F081E02D602F0995D3
:1019F0008C899D89DC01ED91FC910190F081E02DB5
:101A0000612F09958C899D89DF91CF911F910F914D
:101A10000C94780CFF920F931F93CF93DF93EC01FC
:101A2000F62E142F052F8B810E94A40189819A81A3
:101A3000DC01ED91FC910190F081E02D60E00995D1
:101A400089819A81DC01ED91FC910190F081E02D7A
:101A50006F2D099589819A81DC01ED91FC910190AE
:101A6000F081E02D602F099589819A81DC01ED914B
:101A7000FC910190F081E02D612F099589819A8177
:101A80000E94780C8883DF91CF911F910F91FF9076
:101A90000895FF920F931F93CF93DF93EC01062FCE
:101AA000F72E142F8B810E94A40189819A81DC0179
:101AB000ED91FC910190F081E02D6F2D09958981C8
:101AC0009A81DC01ED91FC910190F081E02D602F75
:101AD000099589819A81DC01ED91FC910190F08159
:101AE000E02D612F099589819A810E94780C888365
:101AF000DF91CF911F910F91FF9008958F929F9248
:101B0000AF92BF92CF92DF92EF92FF92CF93DF938B
:101B1000EC01F894688579858A859B8578940E9484
:101B2000222D6B017C016E817F8190E080E00E941C
:101B3000202D9B01AC01C701B6010E94BF2F9B0164
:101B4000AC010E94E12E2BED3FE049E450E40E94FD
:101B5000812D2BED3FE049EC50E40E94BF2F2BED8F
:101B60003FE049EC52E40E94812D6B017C01F89426
:101B7000688979898A899B8978940E94222D4B01F2
:101B80005C016E857F8590E080E00E94202D9B01A6
:101B9000AC01C501B4010E94BF2F9B01AC010E94A2
:101BA000E12E2BED3FE049E450E40E94812D2BED26
:101BB0003FE049EC50E40E94BF2F90582BED3FE0EE
:101BC00049EC52E40E94812DA70196010E94E12E6A
:101BD00020E030E040E05FE30E94812DDF91CF9173
:101BE000FF90EF90DF90CF90BF90AF909F908F903D
:101BF00008952F923F924F925F926F927F928F92B1
:101C00009F92AF92BF92CF92DF92EF92FF920F938B
:101C10001F93CF93DF9300D000D000D0CDB7DEB7B5
:101C20009E838D834A015B010E9434036B017C011A
:101C3000AD81BE81D896CD92DD92ED92FC92DB977C
:101C4000FD0184A995A9A6A9B7A9A7019601281BFA
:101C5000390B4A0B5B0BCA01B9010E94202D20E011
:101C600034E244E759E40E94BF2F2B013C01AD81CF
:101C7000BE81DC964D925D926D927C92DF97FD0164
:101C8000C4AAD5AAE6AAF7AA20A531A542A553A5BC
:101C9000C501B4010E94E02E9B01AC01AD81BE8163
:101CA00094966D917D918D919C9197970E94E02ED5
:101CB0004B015C01ED81FE8184869586A686B78600
:101CC000848E958EA68EB78E20E030E0A901C301E8
:101CD000B2010E948E3018160CF055C0A501940177
:101CE000C301B2010E94812DED81FE8124893589D5
:101CF000468957890E94E12E162F072F382E292E4C
:101D0000AD81BE819C962D913D914D915C919F97A7
:101D100029833A834B835C8369017A01F7FAF09453
:101D2000F7F8F094A70196010E941B2D87FD11C0C2
:101D300029813A814B815C81612F702F832D922DF7
:101D40000E948E3018160CF497C0C12ED02EE32CB2
:101D5000F22CED81FE81C48AD58AE68AF78A20A119
:101D600031A142A153A1C501B4010E94E02EA301FB
:101D700092010E94BF2FAD81BE8150966D937D93DD
:101D80008D939C935397ED81FE81248935894689F3
:101D9000578964817581868197810E94812D6B01AD
:101DA0007C01AD81BE812D913D914D915C91C5012C
:101DB000B4010E94812D9B01AC01C701B6010E94B4
:101DC000E12E6B017C01ED81FE8120893189428900
:101DD000538960857185828593850E94812D9B0141
:101DE000AC01C701B6010E94E12E1B018C01AD813F
:101DF000BE81D0964D905D906D907C90D39773018D
:101E00006201F7FAF094F7F8F094A70196010E94A6
:101E10001B2D87FD0CC0A3019201B101C8010E94D6
:101E20008E3061017801181614F473016201ED819E
:101E3000FE81C08ED18EE28EF38E80A291A2A2A2EC
:101E4000B3A2C701B60126960FB6F894DEBF0FBE47
:101E5000CDBFDF91CF911F910F91FF90EF90DF9059
:101E6000CF90BF90AF909F908F907F906F905F903A
:101E70004F903F902F900895C980DA80EB80FC80CE
:101E800068CFCF92DF92EF92FF920F931F93CF9381
:101E9000DF93EC01488359836A837B830C831D8322
:101EA0002E833F83C886D986EA86FB861C861D86DC
:101EB0001E861F86188A198A1A8A1B8A1C8A1D8AFE
:101EC0001E8A1F8A188E198E1A8E1B8E1C8E1D8ECE
:101ED0001E8E1F8E18A219A21AA21BA21CA21DA23E
:101EE0001EA21FA218A619A61AA61BA680E090E0A3
:101EF000A0E8BFE78CA79DA7AEA7BFA788AB99AB0B
:101F0000AAABBBAB0E9434036CAB7DAB8EAB9FAB7B
:101F10000E94340368AF79AF8AAF9BAF1CAE1DAE91
:101F20001EAE1FAEDF91CF911F910F91FF90EF90EA
:101F3000DF90CF900895CF92DF92EF92FF920F93B0
:101F40001F93CF93DF936C01EB017B01E40EF51E31
:101F500010E000E0CE15DF0561F06991D601ED914A
:101F6000FC910190F081E02DC6010995080F191F21
:101F7000F1CFC801DF91CF911F910F91FF90EF90AA
:101F8000DF90CF9008952F923F924F925F926F9281
:101F90007F928F929F92AF92BF92CF92DF92EF92F9
:101FA000FF920F931F93CF93DF93CDB7DEB72897A0
:101FB0000FB6F894DEBF0FBECDBF7C016C0124E0EC
:101FC000C20ED11CFC01E057FF4F0190F081E02DC3
:101FD000C60109958C018E3F9F4F08F061C0370103
:101FE00084E9680E711CF3010190F081E02DFD83FE
:101FF000EC835701F2E9AF0EB11CF50180809180AE
:10200000970120593F4F3B832A83F901808181301A
:1020100009F470C008F45FC0823009F476C08330E0
:1020200009F482C0F701EC59FF4F91828082329609
:102030002C813D813183208338978081918147961F
:102040009D838C830F3F110511F008F020C1B696D7
:102050000136110530F40134110558F0F701EE573F
:10206000FF4F808191812C813D81280F391F3D8355
:102070002C838C819D810196FC01249121115FC0EC
:1020800090E080E0EA81FB812081213009F4C1C128
:1020900008F4B7C1223009F4BEC1233009F4C3C12A
:1020A00081E090E028960FB6F894DEBF0FBECDBF5A
:1020B000DF91CF911F910F91FF90EF90DF90CF9024
:1020C000BF90AF909F908F907F906F905F904F9058
:1020D0003F902F900895F701E05AFF4F0190F08153
:1020E000E02DC60109952C813D81280F391F3D83C4
:1020F0002C8398CFF701E05AFF4F0190F081E02D3B
:10210000C6010995881A990A8DCFF701E05AFF4F49
:102110000190F081E02DC6010995EC81FD81E81B5D
:10212000F90BFD83EC837ECFF701E05AFF4F01905E
:10213000F081E02DC6010995880E991E73CFEC81C0
:10214000FD8124912017110609F09AC0CF01029653
:10215000009709F495CFF701EE59FF4FF887EF8309
:10216000918380831286739660818F8198850E9407
:102170002C09EF81F8858087F701EA58FF4F6081CD
:102180008F8198850E942C09582EEF81F8858187D0
:10219000970122573F4F3D832C83F9019081EF81B6
:1021A000F885948781E0911180E0EF81F88585873B
:1021B000F701E958FF4F8080682D8F8198850E9434
:1021C0002C09382EF701E858FF4F2080622D8F81AF
:1021D00098850E942C09982EF701E758FF4F10812F
:1021E000612F8F8198850E942C099FEF910F01E04C
:1021F00010E0980101C0220F9A95EAF7821B8E83A6
:10220000EF81F885408414140CF0C4C08A94C8018E
:1022100001C0880F8A94EAF7381AF685F983950C7D
:102220002A94C80101C0880F2A94EAF7282E291899
:102230002F2F422D632DEF81F885828193810E949B
:102240009A084C01EF81F885938382832981422D7E
:10225000632D848195810E94B308EF81F885958371
:102260008483F981F13009F49AC008F44EC0F23049
:1022700009F4A4C0F33009F4B5C0BC0194014FC007
:10228000FC0184912C813D81280F311DF0CEF70196
:10229000EA57FF4F80819181EC81FD81E80FF91FA2
:1022A000FD83EC834F0160E0C4010E9457092C813B
:1022B0003D81280F391F3D832C8362E0C4010E94B9
:1022C000570934E0830E911C8017910760F3EC816D
:1022D000FD81849190E0982F88273196E4918E2B90
:1022E000009709F4CDCE0817190721F48C819D8140
:1022F00003962ECFEC81FD813296E4912C813D81B5
:102300002E0F311D3D832C83E2CF9401240D311D0E
:1023100047FC3A95BC01650D711D57FC7A958B0100
:10232000AC01B401C6010E940207882399F1EF8134
:10233000F885168217824701F3E78F0E911C24E778
:10234000E20EF11CF40160818F8198850E942C09B6
:10235000082FF70160818F8198850E942C09182F22
:1023600040E0602FC6010E94CC0841E0612FC60109
:102370000E94CC0861E08F8198850E942C09811110
:10238000EFCFEF81F88587818515E4F28485EC81B4
:10239000FD818083FE818F2FFF0F990B73CE05196E
:1023A000110957FC139594012F5F3F4FBC01640D39
:1023B000711D47FC7A95800E911EB1CFA80144197A
:1023C000510947FC539594012F5F3F4F051911099F
:1023D00057FC1395BC016F5F7F4F800F911F840ED8
:1023E000951E9DCF9401250D311D57FC3A9504197A
:1023F000110947FC1395BC016F5F7F4F800F911F40
:102400008ECFF50120813181820F931F91838083CC
:1024100047CEF301F7CFF50120813181281B390B1D
:10242000318320833DCEF301F7CF0F931F93CF93DA
:10243000DF938C01FC0181816130FFEF7F07ACF0FD
:10244000EB016F3F710519F014F0CFEFD0E077FD8D
:102450000EC061E00E947802BE01F8018081DF9128
:10246000CF911F910F910C94D702C1E0DFEF60E094
:102470000E947802662777276C1B7D0BEECF0F93A7
:102480001F93CF93DF93EC018A01CB016F3F71055E
:1024900019F014F08FEF90E081302FEF920714F4D1
:1024A00081E09FEF66277727681B790BCE010E949A
:1024B0001512B8010F3F110519F014F06FEF70E01D
:1024C00061308FEF780714F461E07FEFCE01029660
:1024D000DF91CF911F910F910C941512CF93DF9341
:1024E000EC0141E065E170E00E94490D41E068E1E6
:1024F00070E0CE01DF91CF910C94490D0F931F93A3
:10250000CF93DF93EC0128E1629FC00DD11D112410
:102510008D859E8597FF07C08FEF9FEFDF91CF914D
:102520001F910F9108950E948C030F8518892989A6
:102530003A89601B710B820B930B6B3F7105810510
:10254000910550F78D859E85E9CFCF93DF93EC0100
:1025500089810E944F02019771F48C819D81AE8127
:10256000BF810197A109B1098C839D83AE83BF838D
:10257000DF91CF9108958C819D81AE81BF810196BD
:10258000A11DB11DF1CF8091F8019091F901009743
:1025900011F00C94A51208958091F6019091F70125
:1025A000009711F00C94A5120895089590E080E032
:1025B0000895FC0101900020E9F73197AF01481B15
:1025C000590BBC018EEB92E00C949B03CF93DF93ED
:1025D0000E948804EC0185EA91E00E94D9128C0FD8
:1025E0009D1FDF91CF9108958F929F92AF92BF92DE
:1025F0000F931F93CF93DF93CDB7DEB7A1970FB69D
:10260000F894DEBF0FBECDBF19A2423008F44AE0F5
:102610008E010F5D1F4F842E912CB12CA12CA50192
:1026200094010E94A42EE62FB901CA01EA30F4F405
:10263000E05DD801EE938D01232B242B252B79F718
:1026400090E080E0109719F0CD010E94D912A19678
:102650000FB6F894DEBF0FBECDBFDF91CF911F91B3
:102660000F91BF90AF909F908F900895E95CE1CF5C
:10267000E0910105F0910205208980913B0538E049
:10268000839FC0011124289FA001299F500D112470
:1026900070E060E08091390590913A050C94EA323F
:1026A000CF92DF92EF92FF92CF93DF936C01990F5D
:1026B000EE08FF08F7FE19C06DE28EEB92E00E9473
:1026C0003B04EC0166277727CB016C197D098E0945
:1026D0009F094AE00E94F4128C0F9D1FDF91CF9159
:1026E000FF90EF90DF90CF9008954AE0C701B601C8
:1026F000DF91CF91FF90EF90DF90CF900C94F41288
:102700009F92AF92BF92CF92DF92EF92FF920F9380
:102710001F93CF93DF93CDB7DEB72E970FB6F89404
:10272000DEBF0FBECDBF8C0188E60E94A401D80198
:102730008D919C91DC01ED91FC910190F081E02D57
:102740006BE3099580E00E94330A6EE088E60E9400
:10275000230B1092430280934202FE0131967F01C7
:102760005E01FFE0AF0EB11CD8018D919C91DC01A0
:10277000ED91FC910284F385E02D0995982EF801E6
:1027800080819181DC01ED91FC910284F385E02D43
:102790000995C12C8C299929F701819391937F0187
:1027A000AE16BF0609F7D8011696CD90DD90ED90D4
:1027B000FC90199769817A81072E000C880B990B80
:1027C0000E94222DA70196010E94BF2FF8012689A1
:1027D0003789408D518D0E94E02ED80196966D93D9
:1027E0007D938D939C9399976B817C81072E000C30
:1027F000880B990B0E94222DA70196010E94BF2FE2
:10280000F801228D338D448D558D0E94E02ED80124
:102810009A966D937D938D939C939D976D817E8108
:10282000072E000C880B990B0E94222DA701960100
:102830000E94BF2FF801268D378D40A151A10E9423
:10284000E02ED8019E966D937D938D939C93D197A6
:102850006F817885072E000C880B990B0E94222D22
:1028600020E030EF41E456E40E94E12E20E030E029
:102870004AEA53E40E94BF2FF80162A373A384A322
:1028800095A3C280D380E480F58069857A85072E80
:10289000000C880B990B0E94222DA70196010E9423
:1028A000BF2FD8011A962D913D914D915C911D97A6
:1028B0000E94E02EF80162AB73AB84AB95AB6B85E5
:1028C0007C85072E000C880B990B0E94222DA701F6
:1028D00096010E94BF2FD8011E962D913D914D91DA
:1028E0005C9151970E94E02EF80166AB77AB80AF08
:1028F00091AF6D857E85072E000C880B990B0E9489
:10290000222DA70196010E94BF2FD80152962D912A
:102910003D914D915C9155970E94E02EF80162AF78
:1029200073AF84AF95AF2E960FB6F894DEBF0FBE8F
:10293000CDBFDF91CF911F910F91FF90EF90DF906E
:10294000CF90BF90AF909F9008951F93CF93DF9348
:10295000EC01162F8B810E94A40189819A81DC01F0
:10296000ED91FC910190F081E02D60E00995898165
:102970009A81DC01ED91FC910190F081E02D612FB5
:10298000099589819A810E94780C888361E08B8106
:102990000E94230B109243028093420289819A8104
:1029A000DC01ED91FC910284F385E02D0995DF9126
:1029B000CF911F9108950F931F93CF93DF93EC0155
:1029C00061E08A850E94780262E370E080E090E036
:1029D0000E94590364E270E0CE010E94A5148D8329
:1029E00066E170E0CE010E94A514813009F044C177
:1029F0008C8341E067E072E0CE010E94490D41E026
:102A000068E072E0CE010E94490D40E066E970E0A6
:102A1000CE010E94490D4DEF67E970E0CE010E94A2
:102A2000490D41E063EE70E0CE010E94490D43E0A4
:102A300064EE70E0CE010E94490D42E065EE70E068
:102A4000CE010E94490D41E066EE70E0CE010E9489
:102A5000490D43E067EE70E0CE010E94490D42E06F
:102A600065EF70E0CE010E94490D45E069ED70E030
:102A7000CE010E94490D4EEC6BED70E0CE010E943C
:102A8000490D43E06CED70E0CE010E94490D48EF26
:102A90006DED70E0CE010E94490D40E06FE970E0FD
:102AA000CE010E94490D4CE363EA70E0CE010E9422
:102AB000490D40E067EB70E0CE010E94490D4CE308
:102AC0006BEB70E0CE010E94490D49E062EB70E0D3
:102AD000CE010E94490D49E06AEC70E0CE010E94EF
:102AE000490D41E068E971E0CE010E94490D47E1DE
:102AF00060EB71E0CE010E94490D40E06DEA71E0AB
:102B0000CE010E94490D45E06FEF70E0CE010E94BA
:102B1000490D45E060E071E0CE010E94490D45E0BD
:102B200069E971E0CE010E94490D4BE166EA71E06E
:102B3000CE010E94490D4EE36CEA71E0CE010E9485
:102B4000490D4FE167EA71E0CE010E94490D40E076
:102B500060E370E0CE010E94490D40E066E170E064
:102B6000CE010E94490D40E36AE071E0CE010E946F
:102B7000490D46E46FE370E0CE010E94490D4FEF2E
:102B800061E370E0CE010E94490D43E650E060E44D
:102B900070E0CE010E940A0D41E06EE270E0CE01CD
:102BA0000E94490D49E06BE170E0CE010E94490DA1
:102BB00041E36EE370E0CE010E94490D44E264E11E
:102BC00070E0CE010E94490D41E36CE170E0CE015E
:102BD0000E94490D40E063EA72E0CE010E94490D77
:102BE00081E08C834DEF50E066E970E0CE010E94F9
:102BF0000A0D8D81082E000C990B6C8170E00E94EB
:102C0000902E462F64E270E0CE010E94490D6C8147
:102C100070E084E190E00E94902E462F61E270E027
:102C2000CE010E94490D6DE270E0CE010E94A51414
:102C300041E09C81913009F040E08E7F482B6DE2AD
:102C400070E0CE010E94490D44E16CE170E0CE01DC
:102C50000E94490D8CE390E09F838E831985412F5C
:102C60004F7762E172E0CE010E94490D1B83DF9134
:102C7000CF911F910F9108958B810E94A4018981AA
:102C80009A81DC01ED91FC910190F081E02D60E0F2
:102C9000099589819A81DC01ED91FC910190F08187
:102CA000E02D66E9099589819A810E94780C8883D4
:102CB00062E08B810E94230B1092430280934202B8
:102CC00089819A81DC01ED91FC910284F385E02DEC
:102CD000099500E0182F89819A81DC01ED91FC9122
:102CE0000284F385E02D0995802B912B8435910585
:102CF00049F483E08C838D819C81899F802D1124F0
:102D00008D8331CF8F37910511F482E0F3CF81E0CD
:102D1000F1CFCF92DF92EF92FF920F931F93CF9359
:102D2000DF93EC018FEF9FEF9E878D878B898F3F1D
:102D300011F08F5F8B8B8B89843008F441C08C89B4
:102D40009D89AE89BF890097A105B10569F08A0107
:102D50009B01081B190B2A0B3B0BD901C801803DB5
:102D60009740A105B10560F16A017B018B859C85C7
:102D70000E94880481EC91E00E94E612CC8ADD8AF0
:102D8000EE8AFF8A1B8A60E08A850E9478026AE0E8
:102D900070E080E090E00E94590349E262E172E055
:102DA000CE010E94490D89E28B83CE01DF91CF9144
:102DB0001F910F91FF90EF90DF90CF900C94DB1458
:102DC000DF91CF911F910F91FF90EF90DF90CF9007
:102DD00008950F931F93CF93DF938C016DE470E000
:102DE0000E94A514D82F62E670E0C8010E94A514C5
:102DF000C82F41E065E170E0C8010E94490DD295FD
:102E0000DF708FEF9FEF29F4F8018481C89FC00124
:102E10001124DF91CF911F910F9108952F923F922E
:102E20004F925F926F927F928F929F92AF92BF92DA
:102E3000CF92DF92EF92FF920F931F93CF93DF9386
:102E4000CDB7DEB72A970FB6F894DEBF0FBECDBF61
:102E50001C010E948013F101C6A4D7A4E0A8F1A828
:102E6000A7019601C701B6010E94812D69837A836B
:102E70008B839C83F10186A097A0A0A4B1A4A50197
:102E80009401C501B4010E94812D29813A814B81B1
:102E90005C810E94E12E0E94A1306D837E838F832E
:102EA0009887F10142A453A464A475A401E010E042
:102EB00020E030E0A901C701B6010E948E3087FFF3
:102EC00002C010E000E021E030E03A87298720E0EE
:102ED00030E0A901C701B6010E941B2D87FD02C089
:102EE0001A861986B80149855A85641B750B072E09
:102EF000000C880B990B0E94222D2D813E814F8161
:102F000058850E94812D9B01AC01C301B2010E9432
:102F1000602FF101FE96FA87E98721EE3EE245E651
:102F200052E40E94812DE985FA8560837183828352
:102F30009383A3019201C301B2010E94812D2981D3
:102F40003A814B815C810E94E12E0E94A1309B015D
:102F5000AC01C501B4010E94602F91012E5B3F4F6F
:102F60003A832983905821EE3EE245E652E40E94DE
:102F7000812DE981FA8160837183828393830E942A
:102F80008C034B015C0181010E5A1F4FF8018081B7
:102F90009181A281B381A5019401281B390B4A0BB1
:102FA0005B0BCA01B9010E94202D2FE632E143E8F4
:102FB0005AE30E94812D6B017C01F801808291828D
:102FC000A282B382349680809180A280B380A501D2
:102FD000940160E070E080E89FE30E94E02E2B0106
:102FE0003C010C501109F10122A933A944A955A9AA
:102FF000C701B6010E94812DF801208131814281F3
:1030000053810E94E12EA50194010E94812D6D83C0
:103010007E838F839887E985FA852081318142817B
:103020005381C301B2010E94812D9B01AC016D81CE
:103030007E818F8198850E94E12EF80160837183E3
:10304000828393839101265B3F4F3E832D83F10161
:1030500026A937A940AD51ADC701B6010E94812D07
:10306000ED81FE8120813181428153810E94E12ED8
:10307000A50194010E94812D4B015C01E981FA8137
:103080002081318142815381C301B2010E94812D8F
:103090009B01AC01C501B4010E94E12EED81FE81CE
:1030A00060837183828393839101225B3F4F3A83D4
:1030B0002983F10122AD33AD44AD55ADC701B60151
:1030C0000E94812DE981FA812081318142815381E1
:1030D0000E94E12EE981FA81608371838283938368
:1030E0002A960FB6F894DEBF0FBECDBFDF91CF9109
:1030F0001F910F91FF90EF90DF90CF90BF90AF9016
:103100009F908F907F906F905F904F903F902F9007
:1031100008954F925F926F927F928F929F92AF929B
:10312000BF92CF92DF92EF92FF92CF93DF93EC01A9
:103130000E940E170E948C034B015C01FE01E25AB3
:10314000FF4F408051806280738080829182A28292
:10315000B382CAACDBACECACFDAC20E030E0A90142
:10316000C701B6010E948E301816CCF420E030E082
:1031700040E05FE3C701B6010E948E301816CCF024
:10318000DF91CF91FF90EF90DF90CF90BF90AF9005
:103190009F908F907F906F905F904F90089520E068
:1031A00030E040E05FEBC701B6010E941B2D87FFB6
:1031B000E7CFC65ADF4FC501B40164197509860906
:1031C00097090E94202D20E030E04AE754E40E9455
:1031D000BF2FA70196010E94812D288139814A8144
:1031E0005B810E94E12E688379838A839B83C8CFA9
:1031F0002F923F924F925F926F927F928F929F9207
:10320000AF92BF92CF92DF92EF92FF920F931F93F4
:10321000CF93DF93CDB7DEB7CD54D1090FB6F89475
:10322000DEBF0FBECDBF4B015C01C12CD12C76019E
:103230009701860140E050E060E070E4CE01019625
:103240000E94410F0E9434036DAB7EAB8FAB98AFF1
:10325000C9A6DAA6EBA6FCA6CDA2DEA2EFA2F8A62E
:10326000CD8ADE8AEF8AF88EC9A2DAA2EBA2FCA28E
:10327000CDA6DEA6EFA6F8AA80E090E0AFE7B3E423
:1032800089AB9AABABABBCAB2091F5043091F604A3
:103290004091F7045091F804C501B4010E94E12E59
:1032A0006B017C0120E030E044E353E40E948E3067
:1032B00018164CF420E030E044EB53E4C701B601AB
:1032C0000E94E02EEDCF20E030E044E353ECC70154
:1032D000B6010E941B2D87FF0BC020E030E044EBBD
:1032E00053E4C701B6010E94E12E6B017C01EBCFD4
:1032F000C092F504D092F604E092F704F092F8043C
:103300008091AD049091AE040E948918E091AD04C3
:10331000F091AE04E25BFF4F208131814281538105
:103320002E962CAF3DAF4EAF5FAF2E970E948C0311
:103330006B017C0129961CAE1DAE1EAE1FAE2997F7
:103340000E948C0325966CAF7DAF8EAF9FAF259703
:10335000DC01CB018C199D09AE09BF090A97A105B3
:10336000B10570F38091AD049091AE040E9489186C
:10337000E091AD04F091AE04E25BFF4FC080D180DC
:10338000E280F380A70196016091F5047091F60444
:103390008091F7049091F8040E94E02E2B013C01EB
:1033A00020E030E044E353E40E948E301816A4F489
:1033B00020E030E044EB53E4C301B201EDCF2996A5
:1033C0001CAE1DAE1EAE1FAE29972596CCACDDAC53
:1033D000EEACFFAC2597B4CF20E030E044E353ECF3
:1033E000C301B2010E941B2D87FF0BC020E030E01B
:1033F00044EB53E4C301B2010E94E12E2B013C01D6
:10340000EBCF2E962CAD3DAD4EAD5FAD2E97C701E7
:10341000B6010E94E02E4B015C0120E030E044E365
:1034200053E40E948E3018163CF420E030E044EB68
:1034300053E4C501B401EDCF20E030E044E353ECA8
:10344000C501B4010E941B2D87FF0BC020E030E0B6
:1034500044EB53E4C501B4010E94E12E4B015C0131
:10346000EBCF20E030E0A901C501B4010E948E300D
:10347000181624F0B7FAB094B7F8B09420E030E012
:10348000A901C301B2010E948E3011E0181664F444
:103490002AE939E949E95FE3C301B2010E941B2D22
:1034A000181664F410E00AC02AE939E949E95FEB2B
:1034B000C301B2010E948E3087FDF4CF7301620117
:1034C000F7FAF094F7F8F094B701A601CE0101964F
:1034D0000E94F90D1B01082F2A969FAF2A9720E022
:1034E00030E0A901C301B2010E948E30181614F415
:1034F0007301620120E030E040E751E4C501B4010E
:103500000E941B2D87FFF3C020E030E040E751E42C
:10351000C501B4010E94BF2F20E030E04CE852E426
:103520000E94812D4B015C0120E030E04CE852E428
:103530000E948E3018160CF4DAC020E030E04CE027
:1035400052E4C701B6010E941B2D87FDE0C020E0B8
:1035500030E040EF51E4C501B4010E948E301816EE
:1035600034F0812C912C40EFA42E41E4B42E75014F
:103570006401F7FAF094F7F8F094A7019601B1010D
:10358000802F2A969FAD2A970E941B2D87FD12C07F
:10359000A5019401B101802F2A969FAD2A970E9420
:1035A0008E306101E02E2A96FFAC2A97181614F48B
:1035B00075016401111197C020E030E0A901C70135
:1035C000B6010E948E30181604F520E030E040EF7E
:1035D00051E4C701B6010E941B2D87FF20C020E0E7
:1035E00030E0A901C301B2010E948E30C12CD12C60
:1035F00030EFE32E31ECF32E18168CF4C12CD12CC5
:1036000020EFE22E21E4F22E0AC020E030E040EF6D
:1036100051ECC701B6010E948E30181604F3C701A1
:10362000B6010E9431304B01C701B60190580E948B
:103630003130A4018091AB049091AC040E943F1200
:10364000112309F4BCCE29968CAD9DADAEADBFADB6
:103650002997892B8A2B8B2B61F425962CAD3DADB8
:103660004EAD5FAD259729962CAF3DAF4EAF5FAF06
:10367000299725968CAD9DADAEADBFAD259729960A
:103680002CAD3DAD4EAD5FAD2997821B930BA40BC6
:10369000B50B883C9105A105B10508F496CE50E024
:1036A00040E070E060E08091AB049091AC040E9437
:1036B0003F12C35BDF4F0FB6F894DEBF0FBECDBF26
:1036C000DF91CF911F910F91FF90EF90DF90CF90FE
:1036D000BF90AF909F908F907F906F905F904F9032
:1036E0003F902F900895C12CD12C760198CF20E0E7
:1036F00030E04CE052E4C701B6010E941B2D812C42
:10370000912C9CE8A92E92E4B92E87FF30CF20E0BF
:1037100030E04CE052E4C701B6010E94BF2F20E028
:1037200030E04CE852E40E94812D6B017C01A50140
:1037300094010E948E3018160CF409CF46015701EF
:1037400006CF85ED8093BC00809196029091970200
:10375000A0919802B09199020796A11DB11D23E096
:10376000B695A795979587952A95D1F72091BC0096
:1037700024FD03C010929402089540919602509146
:1037800097026091980270919902452B462B472B26
:1037900069F30097A105B10541F02AE22A95F1F7F6
:1037A00000C00197A109B109E1CF809195020C9465
:1037B000120A1F920F920FB60F9211242F933F936C
:1037C0008F939F93AF93BF9380914602909147024E
:1037D000A0914802B09149023091450223E0230FA5
:1037E0002D3758F50196A11DB11D209345028093F8
:1037F000460290934702A0934802B09349028091F9
:103800004A0290914B02A0914C02B0914D02019658
:10381000A11DB11D80934A0290934B02A0934C02CC
:10382000B0934D02BF91AF919F918F913F912F9196
:103830000F900FBE0F901F90189526E8230F029649
:10384000A11DB11DD2CF1F920F920FB60F9211245E
:103850002F933F934F935F936F937F938F939F9398
:10386000AF93BF93EF93FF93E0910201F0910301B7
:103870000995FF91EF91BF91AF919F918F917F91AA
:103880006F915F914F913F912F910F900FBE0F90CD
:103890001F9018951F920F920FB60F9211242F931D
:1038A0003F934F935F936F937F938F939F93AF93C8
:1038B000BF93EF93FF93E0910001F091010109950F
:1038C000FF91EF91BF91AF919F918F917F916F91F8
:1038D0005F914F913F912F910F900FBE0F901F90CE
:1038E00018951F920F920FB60F9211242F933F93AA
:1038F0004F935F936F937F938F939F93AF93BF93F8
:10390000EF93FF938EEB92E00E941904FF91EF91E9
:10391000BF91AF919F918F917F916F915F914F91E7
:103920003F912F910F900FBE0F901F9018951F92EF
:103930000F920FB60F9211242F938F939F93EF93B3
:10394000FF93E091CE02F091CF028081E091D4020A
:10395000F091D50282FD1BC090818091D7028F5FCC
:103960008F732091D802821741F0E091D702F0E0E6
:10397000E254FD4F958F8093D702FF91EF919F9175
:103980008F912F910F900FBE0F901F9018958081EF
:10399000F4CF1F920F920FB60F9211242F933F93E3
:1039A0004F935F936F937F938F939F93AF93BF9347
:1039B000EF93FF938091B900887F803609F44AC065
:1039C000F0F5883209F4A7C018F5803109F49BC0DE
:1039D000B8F4882309F4F9C0883009F494C0FF9141
:1039E000EF91BF91AF919F918F917F916F915F9177
:1039F0004F913F912F910F900FBE0F901F901895F0
:103A0000883109F488C0803251F78093920214C043
:103A1000803409F49DC040F48033B9F38833F9F65B
:103A20008093920285ECB0C0803509F485C088355A
:103A300009F496C0883499F60E94A11BD0CF88392A
:103A400009F48CC038F5883729F050F4883611F025
:103A5000803729F683E08093940210923C0257C08D
:103A6000883809F47BC0803919F0803809F0B7CF65
:103A700080913C02803208F071C0E0913C0281E00C
:103A80008E0F80933C028091BB00F0E0E45EFD4F1E
:103A900080833DC0803B39F0E0F4803A09F479C07E
:103AA000883A09F09CCF84E08093940210921B0224
:103AB00010921A02E0913E02F0913F020995809126
:103AC0001A0281110FC081E080931A021092FA014C
:103AD00009C0803C09F4A6CF883C09F4A3CF883BF9
:103AE00009F07DCFE0911B0281E08E0F80931B02D5
:103AF000F0E0E650FE4F80818093BB0090911B0266
:103B000080911A0229C080916F028093BB0085ECDE
:103B10008093BC0064CF909191028091900298179D
:103B200058F5E091910281E08E0F80939102F0E0D0
:103B3000E059FD4F8081E9CFE091910281E08E0F45
:103B4000809391028091BB00F0E0E059FD4F8083AB
:103B500090919102809190029817C8F285E8D8CF91
:103B6000E091910281E08E0F809391028091BB00E1
:103B7000F0E0E059FD4F80838091930281115CCF8A
:103B800081E080936E0284EA8093BC0010929402DC
:103B900026CF85EC8093BC001092940280913C0269
:103BA000803230F4E0913C02F0E0E45EFD4F1082A0
:103BB00060913C0270E0E0914002F09141028CE1A2
:103BC00092E0099510923C020ACF1092920234CFF3
:103BD0008230B8F4E82FF0E0EE0FFF1FE050FF4F07
:103BE00071836083813039F08091690083608093B4
:103BF0006900E89A0895809169008C60809369005B
:103C0000E99A0895FF920F931F93CF93DF93EC01EE
:103C1000862FF22E688349831B830A831C821D82B0
:103C20001E821F8262E00E94A60262E089810E94D9
:103C3000A6028881F11016C0D093F701C093F60157
:103C4000823061F0833061F08FEF6CEC72E1DF91D4
:103C5000CF911F910F91FF900C94E81D80E0F5CF5C
:103C600081E0F3CFD093F901C093F801823031F0B5
:103C7000833031F08FEF63EC72E1E9CF80E0FBCF6E
:103C800081E0F9CFAF92BF92CF92DF92EF92FF9295
:103C90000F931F93CF93DF93CDB7DEB7C058D109F1
:103CA0000FB6F894DEBF0FBECDBF1092C1021092C6
:103CB000C00288EE93E0A0E0B0E08093C20290934F
:103CC000C302A093C402B093C50223E731E030934E
:103CD000BF022093BE0225EC30E03093CB0220934C
:103CE000CA0224EC30E03093CD022093CC0220ECC9
:103CF00030E03093CF022093CE0221EC30E03093BD
:103D0000D1022093D00222EC30E03093D3022093F2
:103D1000D20226EC30E03093D5022093D4021092E8
:103D2000D7021092D8021092D9021092DA022BED2B
:103D3000A22E23E0B22E1092DE031092DD038093B8
:103D4000DF039093E003A093E103B093E20385E8DF
:103D500091E09093DC038093DB03C12CD12CE12C08
:103D600030E4F32E00E010E020E83FE3B701A601C5
:103D700083E995E00E94410F80E4E3E9F5E0DE018C
:103D8000AF5BBF4F01900D928A95E1F78BE0809376
:103D9000E7038CE08093E80361E08BE00E94A602D9
:103DA00061E08091E8030E94A60289E08093E90324
:103DB0008AE08093EA0361E089E00E94A60261E064
:103DC0008091EA030E94A6020CEB12E020E047E09B
:103DD00062E08BEE93E00E94021E21E048E063E087
:103DE00083EF93E00E94021EB092FC03A092FB03BB
:103DF00088E491EEAAE7BFE38093510490935204C4
:103E0000A0935304B0935404109205041092060436
:103E100010920704109208041092090410920A04E8
:103E200010920B0410920C0410920D0410920E04C8
:103E300010920F04109210041092110410921204A8
:103E40001092130410921404109215041092160488
:103E500010921704109218041092190410921A0468
:103E600010921B0410921C041092550410925604D8
:103E700010925704109258041092590410925A0448
:103E800010925B0410925C04B0925F04A0925E04F6
:103E900029E220936004109261041092620410924F
:103EA0006404109263041092650480E380936604B6
:103EB00080E1809367048FEF9FEF90936B04809372
:103EC0006A0410926C0410926D0410926E041092A9
:103ED0006F04109270041092710410927204109288
:103EE000730410927404B0927704A0927604209325
:103EF00078041092790410927A0410927C04109243
:103F00007B0410927D0431E330937E043EE03093D5
:103F10007F0490938304809382041092840410920F
:103F200085041092860410928704109288041092DF
:103F3000890410928A0410928B0410928C04B0921F
:103F40008F04A0928E0420939004109291041092FA
:103F5000920410929404109293041092950422E318
:103F6000209396042FE02093970490939B048093D2
:103F70009A0410929C0410929D0410929E04109238
:103F80009F041092A0041092A1041092A204109217
:103F9000A3041092A4041092A5041092A6041092F7
:103FA000A7041092A8041092A9041092AA0483EF07
:103FB00091E090936904809368048EEE91E0909371
:103FC00081048093800488EE91E09093990480931B
:103FD000980480E4FE01EF5BFF4FDE011196019033
:103FE0000D928A95E1F787EE93E09093AC0480936D
:103FF000AB048BEF93E09093AE048093AD048DE51A
:1040000094E09093B0048093AF0480E4FE01319675
:10401000A1EBB4E001900D928A95E1F71092F104C2
:104020001092F2041092F3041092F4041092F5042A
:104030001092F6041092F7041092F8041092F9040A
:104040001092FA041092FB041092FC0410920005E6
:104050001092FF0488E291E090938E0580938D0585
:104060001092900510928F05109292051092910572
:104070001092190587E991E09093FE048093FD0466
:1040800010920205109201051092160510920D056E
:1040900010920E0510920F05109210058FEF80936D
:1040A000170580931B05EFE1F5E01FEF119385E005
:1040B000E533F807D9F781E495E0909306058093FE
:1040C000050586E396E090930805809307058BE746
:1040D0009CE090930A058093090583E699E090930C
:1040E0000C0580930B0530E020E040E069E081E0C2
:1040F00095E00E94410510925C0510925B0582E3F9
:1041000091E090933605809335058BE593E090938D
:104110003A058093390581E080933B0510923C0578
:1041200010926A0510928A051092860580938B057D
:1041300080938C058FE991E0909338058093370543
:1041400081E095E00E94B00610925405109253054C
:1041500010925805109257058FEF9FEF90935605D8
:104160008093550590935A0580935905E091370542
:10417000F09138050280F381E02D81E095E009950A
:1041800081EA91E090935E0580935D0510926D0544
:1041900010932A0510932B0510932C05C058DF4F60
:1041A0000FB6F894DEBF0FBECDBFDF91CF911F9148
:1041B0000F91FF90EF90DF90CF90BF90AF90089558
:1041C000CF93DF93CDB7DEB7C058D1090FB6F894BF
:1041D000DEBF0FBECDBF789484B5826084BD84B548
:1041E000816084BD85B5826085BD85B5816085BDF2
:1041F00080916E00816080936E00109281008091AA
:104200008100826080938100809181008160809331
:104210008100809180008160809380008091B10056
:1042200084608093B1008091B00081608093B00081
:1042300080917A00846080937A0080917A00826015
:1042400080937A0080917A00816080937A008091D7
:104250007A00806880937A001092C100E091CE02CB
:10426000F091CF0282E08083E091CA02F091CB020C
:104270001082E091CC02F091CD0280E18083109217
:10428000D602E091D202F091D30286E08083E091E1
:10429000D002F091D102808180618083E091D002D0
:1042A000F091D102808188608083E091D002F0910A
:1042B000D102808180688083E091D002F091D102A8
:1042C00080818F7D8083109243021092420210926F
:1042D0009B021092BD020E94F40988E993E090933A
:1042E0003F0280933E0289E993E0909341028093DC
:1042F0004002E0910505F091060530E020E040E045
:104300006AE081E095E0099580918C0581110E9419
:10431000381380E00E94AE010E94C60110913C0556
:1043200080913B05180FE0910105F091020581890C
:10433000181708F409C3E0910505F091060530E06F
:1043400020E040E060E181E095E0099580E00E9496
:10435000AE01E0910505F091060530E020E040E077
:104360006BE081E095E0099588EA91E00E94D9121E
:1043700085EA91E00E94D91260E089E10E94E30C95
:1043800060E08AE10E94E30C80E090E0A3E8B2E400
:104390008093FD039093FE03A093FF03B09300046A
:1043A00068E08BE10E94E30C80E090E0A0E8B6E4D6
:1043B0008093010490930204A0930304B093040437
:1043C00060E08CE10E94E30C61E08BE60E94E30C6C
:1043D000182F8BEF93E00E940E1780913904909173
:1043E0003A04A0913B04B0913C0480934104909323
:1043F0004204A0934304B093440480913D049091FF
:104400003E04A0913F04B0914004809345049093F2
:104410004604A0934704B09348040E948C03609321
:104420004D0470934E0480934F049093500486EC97
:1044300090E00E948804612F70E090E080E04AE004
:104440000E94F41285EA91E00E94D9121111FECF68
:1044500088E60E94A4016BE18BED93E00E94490C79
:1044600068E08BED93E00E94490C8BED93E00E9495
:10447000780C8DE990E00E94E61268EE73E080E02F
:1044800090E00E94590310920504109206041092C5
:104490000704109208041092090410920A04109262
:1044A0000B0410920C0410920D0410920E04109242
:1044B0000F04109210041092110410921204109222
:1044C0001304109214041092150410921604109202
:1044D0001704109218041092190410921A041092E2
:1044E0001B0410921C0404EF11E025961CAE1DAEB7
:1044F0001EAE1FAE259729961CAE1DAE1EAE1FAE7A
:1045000029972D961CAE1DAE1EAE1FAE2D97C12C49
:10451000D12C760146015701260137018BEF93E03C
:104520000E948013209121043091220440912304A1
:1045300050912404C301B2010E94E12E2B013C01E1
:10454000209125043091260440912704509128049D
:10455000C501B4010E94E12E4B015C0120E030E076
:1045600040E85FE36091290470912A0480912B0454
:1045700090912C040E94E02E9B01AC01C701B60172
:104580000E94E12E6B017C0120912D0430912E04BC
:1045900040912F04509130042D966CAD7DAD8EADC1
:1045A0009FAD2D970E94E12E2D966CAF7DAF8EAF03
:1045B0009FAF2D9720913104309132044091330404
:1045C0005091340429966CAD7DAD8EAD9FAD299789
:1045D0000E94E12E29966CAF7DAF8EAF9FAF2997D9
:1045E00020913504309136044091370450913804BD
:1045F00025966CAD7DAD8EAD9FAD25970E94E12EC9
:1046000025966CAF7DAF8EAF9FAF259761E070E0D0
:1046100080E090E00E9459030150110909F07ECF1B
:1046200020E030E04AEF53E4C301B2010E94BF2F03
:1046300060931104709312048093130490931404F4
:1046400020E030E04AEF53E4C501B4010E94BF2FDF
:1046500060931504709316048093170490931804C4
:1046600020E030E04AEF53E4C701B6010E94BF2FBB
:104670006093190470931A0480931B0490931C0494
:1046800020E030E04AEF53E42D966CAD7DAD8EAD69
:104690009FAD2D970E94BF2F609305047093060471
:1046A000809307049093080420E030E04AEF53E43D
:1046B00029966CAD7DAD8EAD9FAD29970E94BF2F21
:1046C0006093090470930A0480930B0490930C0484
:1046D00020E030E04AEF53E425966CAD7DAD8EAD21
:1046E0009FAD25970E94BF2F60930D0470930E0419
:1046F00080930F049093100486E990E00E94E612E4
:104700000E948C036093590470935A0480935B0455
:1047100090935C0410925504109256041092570422
:10472000109258041092440288EA91E6A0E0B0E0AA
:104730008093960290939702A0939802B093990267
:1047400081E08093950207E614E061E0D8018C9146
:104750000E94A60260E0F80180810E947802085E53
:104760001F4FF4E00F3A1F0781F762E370E080E02B
:1047700090E00E9459030DE514E065EAC62E64E05E
:10478000D62E7801C7010E94DB1483E091E00E94DD
:104790008804D7011A966C9170E090E080E04AE0BE
:1047A0000E94F4128EEE90E00E948804F701618569
:1047B00070E090E080E040E10E94F41285EA91E030
:1047C0000E94D912F8E1EF0EF11CCE14DF04D1F6ED
:1047D00048EE842E43E0942E5CE3A52EB12CD80144
:1047E00017969C928E92169741E068E170E0C8019E
:1047F0000E94490D0E948C036B016FE470E0C801B8
:104800000E94A5148770843009F4A5C0F801868140
:104810009781892B91F30E948C036C197D09D80133
:1048200016968D919C9117978617970730F781E020
:1048300018968C93F801B782A682085E1F4FE01687
:10484000F10669F687ED90E00E94E6128091AD04D2
:104850009091AE040E948918E091AD04F091AE04ED
:10486000E25BFF4F80819181A281B3818093F50447
:104870009093F604A093F704B093F80468EE73E005
:1048800080E090E00E9459036EE070E090E080E0EC
:104890000E94243267969FAF8EAF6797009709F406
:1048A00066C0DC011C9267EB71E00E94F132EDE022
:1048B000F0E06996FFAFEEAF6997312C212C699635
:1048C0002EAD3FAD69972216330614F00C94DB2C05
:1048D0002216330610F00C94D82C67964EAD5FADBF
:1048E00067974115510511F40C94D82C91012F5F55
:1048F0003F4FFA01E20DF31D90819C36E9F19237AA
:1049000009F45BC0963611F00C94D82C01E010E04D
:10491000C10101966996AEADBFAD6997A817B907F9
:1049200009F461C08A179B0708F05DC06796EEAD79
:10493000FFAD6797E80FF91F2081263609F053C0B5
:104940000F5F1F4F1C01E4CF80918C0581110E94E5
:104950003813812FDFCC62E670E0C8010E94A514F5
:1049600041E065E170E0C8010E94490D63CF69969E
:104970001FAE1EAE6997A1CFC9010E94501385E6F4
:1049800091E00E94880469968EAD9FAD69970E9460
:1049900050138FE591E00E94E61260E070E082EB38
:1049A00092E40E94F81868EC70E080E090E00E94C9
:1049B00059039FEF291A390A82CFC9010E94501367
:1049C0008DE591E00E94880469968EAD9FAD699750
:1049D0000E94501386E591E00E94E61260E070E0CC
:1049E00082EB92ECDECF0E94501384E591E00E94AE
:1049F000880469968EAD9FAD69970E94501389E433
:104A000091E00E948804C8010E94501385EA91E059
:104A10000E94D912B801110F880B990B0E94222D08
:104A200020E030E044E353E40E94812DA9966CAF6E
:104A30007DAF8EAF9FAFA997C12CD12C30E8E32E6C
:104A40003EE3F32E00E010E098014AE959E969E9F4
:104A50007FE3CE0101960E94410F20E030E048EC58
:104A600052E42DA73EA74FA758AB80E090E0AFE7F8
:104A7000B3E489AB9AABABABBCABE091AB04F091C8
:104A8000AC04F89410861186128613867894F894F4
:104A9000108A118A128A138A78948091AD049091B9
:104AA000AE040E9489180091AF041091B004F8017F
:104AB000E75BFF4F1082780138E4E30EF11CC80178
:104AC0000E946E120E948C034B015C016FE470E047
:104AD000C8010E94A5148770843009F422C30E9483
:104AE0008C03681979098A099B096D337105810561
:104AF000910560F30E948C03AB01BC01C8010E94C8
:104B00008916085E1F4FE016F106C9F6E091AD0464
:104B1000F091AE04E25BFF4F2081318142815381ED
:104B2000C358DF4F288339834A835B83CD57D040F6
:104B30008091AB049091AC040E947E0D6B017C01CE
:104B40000E9434036DAB7EAB8FAB98AFC9A6DAA6DB
:104B5000EBA6FCA6A9968CAD9DADAEADBFADA99759
:104B60008DA39EA3AFA3B8A71D8A1E8A1F8A188E85
:104B700019A21AA21BA21CA2E091AF04F091B004EA
:104B800047845088618872880E948C036B017C0185
:104B9000AD961CAE1DAE1EAE1FAEAD97EA961FAE13
:104BA000EA97EB961FAEEB97EC961FAEEC97ED965F
:104BB0001FAEED9765961CAE1DAE1EAE1FAE65977F
:104BC000AF961FAEAF976D961CAE1DAE1EAE1FAE5C
:104BD0006D97E6961FAEE697E7961FAEE797E896C5
:104BE0001FAEE897E9961FAEE99761961CAE1DAE21
:104BF0001EAE1FAE61970E948C03A1966CAF7DAF75
:104C00008EAF9FAFA197DC01CB018C199D09AE0936
:104C1000BF090A97A105B10570F38091AD04909189
:104C2000AE040E9489180091AF041091B0040E9454
:104C30008C034B015C01F801E75BFF4F8081882307
:104C400079F131978081C82ED12C780198E1989F15
:104C5000E00CF11C11246FE470E0C7010E94A51460
:104C60008770843009F487C2F801E65BFF4F8081CA
:104C70009181A281B381A5019401281B390B4A0BB4
:104C80005B0BDA01C9018E97A105B10558F1B50199
:104C9000A401C7010E948916F801E75BFF4F10824B
:104CA000F801E85BFF4F808190E0019663E070E0DF
:104CB0000E94902E8083E8E1E89F9001E99F300DEB
:104CC0001124C801820F931F0E946E120E948C0350
:104CD000F801E65BFF4F6083718382839383319792
:104CE00021E020838091AB049091AC040E947E0D62
:104CF0002D966CAF7DAF8EAF9FAF2D970091AF0417
:104D00001091B004D8011F968D919D910D90BC918A
:104D1000A02DE5968CAF9DAFAEAFBFAFE5978415E4
:104D20009505A605B705C1F02A96BFAD2A97EA9664
:104D3000BFAFEA972B96EFAD2B97EB96EFAFEB97C4
:104D40002C96FFAD2C97EC96FFAFEC972D962FADE0
:104D50002D97ED962FAFED972D962CAD3DAD4EAD29
:104D60005FAD2D97A9966CAD7DAD8EAD9FADA9972A
:104D70000E94E02E25966CAF7DAF8EAF9FAF25973A
:104D800020E030E0A901A9966CAD7DAD8EAD9FAD60
:104D9000A9970E948E3018160CF00FC260E0C8016F
:104DA0000E947E12813A910508F0FFC1BC01990F63
:104DB000880B990B0E94222D20E030E04CE552E454
:104DC0000E94E02E6B017C01EA962FADEA97EB96EC
:104DD0003FADEB97EC964FADEC97ED965FADED9751
:104DE0002D966CAD7DAD8EAD9FAD2D970E94E02EC2
:104DF0009B01AC01C701B6010E94E02E2B013C01D2
:104E0000AC019B0125966CAD7DAD8EAD9FAD259718
:104E10000E948E3018160CF0E9C531E026963FAF9F
:104E2000269720E030E040E450E4C301B2010E9444
:104E30001B2D18161CF426961FAE269741E0AE9641
:104E40004FAFAE9726968FAD26978111C4C2A1961B
:104E50002CAD3DAD4EAD5FADA19765968CAD9DADD2
:104E6000AEADBFAD6597281B390B4A0B5B0BA59602
:104E70002CAF3DAF4EAF5FAFA5972C333105410549
:104E8000510508F497C261E08091AF049091B0049D
:104E90000E947E128C0162E08091AF049091B00478
:104EA0000E947E127C01680191E0C91AD108D701E5
:104EB00011976396BFAFAEAF6397BBE8CB16D10433
:104EC00008F0C9C16396EEADFFAD6397EB38F1050D
:104ED00008F0C1C1B801110F880B990B0E94222D57
:104EE0004B015C01B701FF0C880B990B0E94222D2E
:104EF00065966CAF7DAF8EAF9FAF65979B01AC01A0
:104F0000C501B4010E94E12E20E030E040E05FE303
:104F10000E94812D6B017C0120E030E048EC51E4DF
:104F20000E941B2D87FD90C120E030E040EA52E452
:104F3000C701B6010E948E30181634F4C12CD12C52
:104F400000EAE02E02E4F02EC092F904D092FA04B6
:104F5000E092FB04F092FC0465962CAD3DAD4EADA5
:104F60005FAD6597C501B4010E94E02E20E030E0FE
:104F700040E05FE30E94812D7B018C01AF969FADE5
:104F8000AF97992309F4F5C1A5966CAD7DAD8EADB3
:104F90009FADA5970E94202D20E030E04AE754E421
:104FA0000E94BF2F4B015C0120E030E0A9010E946C
:104FB0008E3018160CF0DDC12AE939E949E15FE3CA
:104FC0006D966CAD7DAD8EAD9FAD6D970E94812DC0
:104FD0006D966CAF7DAF8EAF9FAF6D97E6962FADA0
:104FE000E697E7963FADE797E8964FADE897E996E5
:104FF0005FADE997B701C8010E94E02EA5019401B9
:105000000E94BF2F2DEC3CEC4CEC5EE30E94812D06
:105010006D962CAD3DAD4EAD5FAD6D970E94E12E0E
:105020006D966CAF7DAF8EAF9FAF6D972AE939E972
:1050300049E15FE3B701C8010E94812D4B015C018A
:105040002AE037ED43EA5DE36D966CAD7DAD8EAD44
:105050009FAD6D970E94812D9B01AC01C501B401EC
:105060000E94E12E4B015C0120E030E040EA51EC6F
:105070000E941B2D87FD84C120E030E040EA51E40E
:10508000C501B4010E948E30181634F4812C912C85
:10509000A0EAAA2EA1E4BA2E23E333E343E35FE3BD
:1050A00061966CAD7DAD8EAD9FAD61970E94812DF7
:1050B00061966CAF7DAF8EAF9FAF61972AE939E9FA
:1050C00049E95EE3C501B4010E94812D61962CADD2
:1050D0003DAD4EAD5FAD61970E94E12E61966CAF24
:1050E0007DAF8EAF9FAF6197A1962CAD3DAD4EAD1C
:1050F0005FADA19765962CAF3DAF4EAF5FAF6597A3
:10510000E696EFAEE697E796FFAEE797E8960FAF25
:10511000E897E9961FAFE99731E0AF963FAFAF97B9
:10512000EFC0C8010E94E9166C010E948C03D801EF
:1051300053961C921C141D041CF0CC24CA94DC2C25
:10514000F801D686C5866787708B818B928BD9CC08
:10515000AD961CAE1DAE1EAE1FAEAD97A196CCACEB
:10516000DDACEEACFFACA197E5964CAC5DAC6EACA3
:105170007FACE59740CDC7010E94E916D701539651
:105180001C921816190614F08FEF9FEFB8E1BC9D22
:10519000F001BD9DF00D1124E00FF11F968785876A
:1051A0008786908AA18AB28A77CDC12C80E5D82ED5
:1051B00083ECE82E87E4F82E07CE20E030E0A9014A
:1051C00025966CAD7DAD8EAD9FAD25970E948E303E
:1051D00018169CF12596CCACDDACEEACFFAC259757
:1051E000F7FAF094F7F8F09451E026965FAF26971F
:1051F00020E030E040E450E4C701B6010E941B2DDE
:1052000018161CF426961FAE269720E030E0A90160
:10521000A9966CAD7DAD8EAD9FADA9970E948E30E5
:1052200018160CF0B4C025964CAC5DAC6EAC7FACDF
:105230002597AE961FAEAE9705CE2596CCACDDACCD
:10524000EEACFFAC2597D0CFC12CD12C18ECE12EC1
:1052500011E4F12E79CE8090F9049090FA04A09098
:10526000FB04B090FC0420E030E0A901C501B401CA
:105270000E948E30181634F0812C912CB0E4AB2EA5
:10528000B2E4BB2EFBE8CF16D10458F4B801110FDD
:10529000880B990B0E94222DA50194010E94E02EFB
:1052A0006BCE63962EAD3FAD63972B38310508F476
:1052B00055C023E333E343E35FE361966CAD7DAD1B
:1052C0008EAD9FAD61970E94812D61966CAF7DAFD1
:1052D0008EAF9FAF6197A1968CAD9DADAEADBFADCA
:1052E000A19765968CAF9DAFAEAFBFAF6597AF96F8
:1052F0001FAEAF976D961CAE1DAE1EAE1FAE6D9766
:1053000061962CAD3DAD4EAD5FAD6197C358DF4F9B
:10531000688179818A819B81CD57D0400E94E12E9E
:10532000E091AD04F091AE04E25BFF4F208131814A
:10533000428153810E94E02E4B015C0120E030E06D
:1053400044E353E40E948E3018160CF05CC020E059
:1053500030E044EB53E4C501B401ECCFB701FF0CDE
:10536000880B990B0E94222D9B01AC01C501B40151
:1053700095CF6D961CAE1DAE1EAE1FAE6D9756CE70
:10538000812C912CF0EAAF2EF1ECBF2E85CE20E0DF
:1053900030E040E450E4C701B6010E941B2D259681
:1053A0004CAC5DAC6EAC7FAC2597AE961FAEAE97A5
:1053B000181624F520E030E0A901A9966CAD7DAD6A
:1053C0008EAD9FADA9970E941B2D26961FAE2697E6
:1053D00018160CF495CF23E333E343E35FE36196C0
:1053E0006CAD7DAD8EAD9FAD61970E94812D6196B4
:1053F0006CAF7DAF8EAF9FAF619782CF41E02696B5
:105400004FAF2697E8CF20E030E044E353ECC501EE
:10541000B4010E941B2D87FF0BC020E030E044EB5D
:1054200053E4C501B4010E94E12E4B015C01EBCFB6
:1054300020E030E0A901C501B4010E948E3011E0E6
:10544000181664F420E030E040EC5FE3C501B401DD
:105450000E941B2D181664F410E00AC020E030E012
:1054600040EC5FEBC501B4010E948E3087FDF4CFA4
:1054700026965FAD2697552321F01D8A1E8A1F8A26
:10548000188E2D964CAD5DAD6EAD7FAD2D97CE01D6
:1054900001960E94F90D062FA2967FAFA297E09683
:1054A0008FAFE097E1969FAFE19720E030E0A90150
:1054B000C301B2010E948E30181624F077FA70945E
:1054C00077F8709420E030E0A9012D966CAD7DADA9
:1054D0008EAD9FAD2D970E948E3018166CF02D96D4
:1054E0008CAD9DADAEADBFAD2D97B0582D968CAFA8
:1054F0009DAFAEAFBFAF2D9720E030E040E252E469
:105500002D966CAD7DAD8EAD9FAD2D970E941B2D60
:1055100087FF5BC220E030E040E252E42D966CADA4
:105520007DAD8EAD9FAD2D970E94BF2F20E030E066
:1055300042E053E40E94812D6B017C0120E030E0C9
:1055400042E053E40E948E3018160CF43EC220E074
:1055500030E04CE852E4C301B2010E941B2D87FFEA
:105560001AC020E030E04CE852E4C301B2010E94CE
:10557000BF2F20E030E042E053E40E94812D3B0148
:105580002C019B01AC01C701B6010E941B2D87FDB8
:1055900002C06301720120E030E040E252E4C70142
:1055A000B6010E948E30181634F0C12CD12CE0E2E6
:1055B000EE2EE2E4FE2E2601370177FA709477F89A
:1055C0007094A3019201602FA2967FADA297E096FE
:1055D0008FADE097E1969FADE1970E941B2D87FD6F
:1055E0001CC0A7019601602FA2967FADA297E096FE
:1055F0008FADE097E1969FADE1970E948E30260136
:105600003701181654F0402EA2965FACA297E09690
:105610006FACE097E1967FACE19726969FAD269719
:10562000911188C020E030E0A901C301B2010E94BD
:105630008E30181624F520E030E040E252E4C30139
:10564000B2010E941B2D87FF24C020E030E0A90199
:1056500025966CAD7DAD8EAD9FAD25970E948E30A9
:10566000412C512C70E2672E72E4772E18168CF0C4
:10567000412C512C60E2662E62EC762E0AC020E0AE
:1056800030E040E252ECC301B2010E948E301816A5
:10569000E4F2A5019401C501B4010E94E12E6B0161
:1056A0007C0120E030E044E352EC0E941B2D87FD9A
:1056B00045C020E030E044E352E4C701B6010E9457
:1056C0008E30181634F4C12CD12C54E3E52E52E45C
:1056D000F52E1111BAC02696AFAD2697AA2309F46C
:1056E0003EC020E030E0A901C701B6010E948E3023
:1056F00018165CF520E030E040EF51E4C701B60138
:105700000E941B2D87FF2BC020E030E0A901C501BE
:10571000B4010E948E30C12CD12C30EFE32E31E445
:10572000F32E1816E4F0C12CD12C20EFE22E21EC40
:10573000F22E15C0412C512C3201ABCFC12CD12CF3
:1057400044E3E42E42ECF42EC4CF20E030E040EFFE
:1057500051ECC701B6010E948E301816ACF2A701B9
:105760009601C301B2010E94E12E0E9431304B012B
:10577000A7019601C301B2010E94E02E0E943130C0
:10578000A4018091AB049091AC040E943F12269634
:10579000BFAD2697BB2309F4DBCC112309F4D8CC89
:1057A000AD962CAD3DAD4EAD5FADAD97232B242B0B
:1057B000252B61F4A1968CAD9DADAEADBFADA1978B
:1057C000AD968CAF9DAFAEAFBFAFAD97A1968CAD90
:1057D0009DADAEADBFADA197AD962CAD3DAD4EAD7F
:1057E0005FADAD97821B930BA40BB50B883C910565
:1057F000A105B10508F4B2CC50E040E070E060E0F3
:105800008091AB049091AC040E943F12AE963FADE4
:10581000AE97332309F4C7C88AE191E00E94880457
:1058200025962CAD3DAD4EAD5FAD2597CA01B901B2
:105830000E94E530882369F085EC91E00E94D9123E
:1058400081E191E00E94E612AEC8C12CD12C760114
:1058500086CF2596CCACDDACEEACFFAC2597E894BA
:10586000F7F82FEF3FEF4FE75FE7C701B6010E9460
:10587000E53081110DC02FEF3FEF4FE75FE7C70124
:10588000B6010E941B2D18161CF489EC91E0D6CFAE
:105890002FEF3FEF4FE75FE425966CAD7DAD8EAD0A
:1058A0009FAD25970E948E3018161CF48DEC91E068
:1058B000C5CF2FEF3FEF4FE75FEC25966CAD7DAD89
:1058C0008EAD9FAD25970E941B2D87FDEFCF20E069
:1058D00030E0A90125966CAD7DAD8EAD9FAD2597CD
:1058E0000E941B2D87FF12C06DE28EEB92E00E949A
:1058F0003B0425968CAD9DADAEADBFAD2597B058A0
:1059000025968CAF9DAFAEAFBFAF25972AE037EDA0
:1059100043EA5BE325966CAD7DAD8EAD9FAD2597DB
:105920000E94E12E4B015C010E9438306B017C012A
:105930000E94202D9B01AC01C501B4010E94E02E04
:105940004B015C014AE0C701B6010E94F4126EE20D
:105950008EEB92E00E943B0420E030E040E251E414
:10596000C501B4010E94812D4B015C010E943830B9
:105970006B01F12CE12C4AE0C701B6010E94F41240
:10598000C701B6010E94202D9B01AC01C501B401E5
:105990000E94E02E20E030E040E251E40E94812DA0
:1059A0000E94383090E080E04AE00E94F41248CF34
:1059B0008FE291E047CF6796AEADBFAD6797109786
:1059C00019F0CD010E949B31FFCF20E030E04CE880
:1059D00052E4C301B2010E941B2DC12CD12C92E0D4
:1059E000E92E93E4F92E87FDBCCDE5CD20E030E033
:1059F000A90125966CAD7DAD8EAD9FAD25970E941A
:105A00008E3018160CF0E6CBB1E02696BFAF269785
:105A100020E030E040E450E425966CAD7DAD8EADE5
:105A20009FAD25970E941B2D18160CF0FCCB2696D7
:105A30001FAE2697F8CB0E945D2D08F481E00895F3
:105A4000E89409C097FB3EF4909580957095619518
:105A50007F4F8F4F9F4F9923A9F0F92F96E9BB27CE
:105A60009395F695879577956795B795F111F8CF4A
:105A7000FAF4BB0F11F460FF1BC06F5F7F4F8F4FB5
:105A80009F4F16C0882311F096E911C0772321F0AB
:105A90009EE8872F762F05C0662371F096E8862F43
:105AA00070E060E02AF09A95660F771F881FDAF79A
:105AB000880F9695879597F90895990F0008550FC7
:105AC000AA0BE0E8FEEF16161706E807F907C0F084
:105AD00012161306E407F50798F0621B730B840B8C
